{
  "contractName": "PublicArticle",
  "abi": [
    {
      "inputs": [],
      "name": "expires",
      "outputs": [
        {
          "internalType": "uint256",
          "name": "",
          "type": "uint256"
        }
      ],
      "stateMutability": "view",
      "type": "function",
      "constant": true
    },
    {
      "inputs": [],
      "name": "owner",
      "outputs": [
        {
          "internalType": "address",
          "name": "",
          "type": "address"
        }
      ],
      "stateMutability": "view",
      "type": "function",
      "constant": true
    },
    {
      "inputs": [
        {
          "internalType": "string",
          "name": "_articleName",
          "type": "string"
        }
      ],
      "name": "setArticleName",
      "outputs": [],
      "stateMutability": "nonpayable",
      "type": "function"
    },
    {
      "inputs": [
        {
          "internalType": "string",
          "name": "_articleText",
          "type": "string"
        }
      ],
      "name": "setArticleText",
      "outputs": [],
      "stateMutability": "nonpayable",
      "type": "function"
    },
    {
      "inputs": [
        {
          "internalType": "uint256",
          "name": "_duration",
          "type": "uint256"
        }
      ],
      "name": "setDuration",
      "outputs": [],
      "stateMutability": "nonpayable",
      "type": "function"
    },
    {
      "inputs": [],
      "name": "getArticleName",
      "outputs": [
        {
          "internalType": "string",
          "name": "",
          "type": "string"
        }
      ],
      "stateMutability": "view",
      "type": "function",
      "constant": true
    },
    {
      "inputs": [],
      "name": "getArticleText",
      "outputs": [
        {
          "internalType": "string",
          "name": "",
          "type": "string"
        }
      ],
      "stateMutability": "view",
      "type": "function",
      "constant": true
    }
  ],
  "bytecode": "0x608060405233600360006101000a81548173ffffffffffffffffffffffffffffffffffffffff021916908373ffffffffffffffffffffffffffffffffffffffff16021790555034801561005157600080fd5b50610908806100616000396000f3fe608060405234801561001057600080fd5b506004361061007d5760003560e01c8063b1cb0db31161005b578063b1cb0db3146100dc578063b2ae64d3146100fa578063bfd240cc14610116578063f6be71d1146101325761007d565b806339093c9c1461008257806362940a14146100a05780638da5cb5b146100be575b600080fd5b61008a61014e565b6040516100979190610623565b60405180910390f35b6100a86101ef565b6040516100b59190610623565b60405180910390f35b6100c6610290565b6040516100d39190610608565b60405180910390f35b6100e46102b6565b6040516100f19190610645565b60405180910390f35b610114600480360381019061010f919061053b565b6102bc565b005b610130600480360381019061012b919061053b565b610330565b005b61014c60048036038101906101479190610584565b6103a4565b005b606060025442111561015f57600080fd5b6001805461016c906107a6565b80601f0160208091040260200160405190810160405280929190818152602001828054610198906107a6565b80156101e55780601f106101ba576101008083540402835291602001916101e5565b820191906000526020600020905b8154815290600101906020018083116101c857829003601f168201915b5050505050905090565b606060025442111561020057600080fd5b6000805461020d906107a6565b80601f0160208091040260200160405190810160405280929190818152602001828054610239906107a6565b80156102865780601f1061025b57610100808354040283529160200191610286565b820191906000526020600020905b81548152906001019060200180831161026957829003601f168201915b5050505050905090565b600360009054906101000a900473ffffffffffffffffffffffffffffffffffffffff1681565b60025481565b600360009054906101000a900473ffffffffffffffffffffffffffffffffffffffff1673ffffffffffffffffffffffffffffffffffffffff163373ffffffffffffffffffffffffffffffffffffffff161461031657600080fd5b806001908051906020019061032c929190610413565b5050565b600360009054906101000a900473ffffffffffffffffffffffffffffffffffffffff1673ffffffffffffffffffffffffffffffffffffffff163373ffffffffffffffffffffffffffffffffffffffff161461038a57600080fd5b80600090805190602001906103a0929190610413565b5050565b600360009054906101000a900473ffffffffffffffffffffffffffffffffffffffff1673ffffffffffffffffffffffffffffffffffffffff163373ffffffffffffffffffffffffffffffffffffffff16146103fe57600080fd5b804261040a91906106d2565b60028190555050565b82805461041f906107a6565b90600052602060002090601f0160209004810192826104415760008555610488565b82601f1061045a57805160ff1916838001178555610488565b82800160010185558215610488579182015b8281111561048757825182559160200191906001019061046c565b5b5090506104959190610499565b5090565b5b808211156104b257600081600090555060010161049a565b5090565b60006104c96104c484610685565b610660565b9050828152602081018484840111156104e5576104e461089b565b5b6104f0848285610764565b509392505050565b600082601f83011261050d5761050c610896565b5b813561051d8482602086016104b6565b91505092915050565b600081359050610535816108bb565b92915050565b600060208284031215610551576105506108a5565b5b600082013567ffffffffffffffff81111561056f5761056e6108a0565b5b61057b848285016104f8565b91505092915050565b60006020828403121561059a576105996108a5565b5b60006105a884828501610526565b91505092915050565b6105ba81610728565b82525050565b60006105cb826106b6565b6105d581856106c1565b93506105e5818560208601610773565b6105ee816108aa565b840191505092915050565b6106028161075a565b82525050565b600060208201905061061d60008301846105b1565b92915050565b6000602082019050818103600083015261063d81846105c0565b905092915050565b600060208201905061065a60008301846105f9565b92915050565b600061066a61067b565b905061067682826107d8565b919050565b6000604051905090565b600067ffffffffffffffff8211156106a05761069f610867565b5b6106a9826108aa565b9050602081019050919050565b600081519050919050565b600082825260208201905092915050565b60006106dd8261075a565b91506106e88361075a565b9250827fffffffffffffffffffffffffffffffffffffffffffffffffffffffffffffffff0382111561071d5761071c610809565b5b828201905092915050565b60006107338261073a565b9050919050565b600073ffffffffffffffffffffffffffffffffffffffff82169050919050565b6000819050919050565b82818337600083830152505050565b60005b83811015610791578082015181840152602081019050610776565b838111156107a0576000848401525b50505050565b600060028204905060018216806107be57607f821691505b602082108114156107d2576107d1610838565b5b50919050565b6107e1826108aa565b810181811067ffffffffffffffff82111715610800576107ff610867565b5b80604052505050565b7f4e487b7100000000000000000000000000000000000000000000000000000000600052601160045260246000fd5b7f4e487b7100000000000000000000000000000000000000000000000000000000600052602260045260246000fd5b7f4e487b7100000000000000000000000000000000000000000000000000000000600052604160045260246000fd5b600080fd5b600080fd5b600080fd5b600080fd5b6000601f19601f8301169050919050565b6108c48161075a565b81146108cf57600080fd5b5056fea2646970667358221220c03a51558c6b2aa482b20451e9b98bb5cd9080fd7f9333cc675784a4af68a33064736f6c63430008070033",
  "immutableReferences": {},
  "source": "// SPDX-License-Identifier: (c) Copyright 2020 Kingsland University, All Rights Reserved.\r\n\r\npragma solidity ^0.8.7;\r\n\r\ncontract PublicArticle {\r\n    string private articleName;\r\n    string private articleText;\r\n\r\n    uint256 public expires;\r\n    address public owner = msg.sender;\r\n\r\n    modifier onlyOwner() {\r\n        require(msg.sender == owner);\r\n        _;\r\n    }\r\n\r\n    modifier limitedTime() {\r\n        require(block.timestamp <= expires);\r\n        _;\r\n    }\r\n\r\n    function setArticleName(string memory _articleName) public onlyOwner {\r\n        articleName = _articleName;\r\n    }\r\n\r\n    function setArticleText(string memory _articleText) public onlyOwner {\r\n        articleText = _articleText;\r\n    }\r\n\r\n    function setDuration(uint256 _duration) public onlyOwner {\r\n        expires = block.timestamp + _duration;\r\n    }\r\n\r\n    function getArticleName() public view limitedTime returns(string memory){\r\n        return articleName;\r\n    }\r\n\r\n    function getArticleText() public view limitedTime returns(string memory){\r\n        return articleText;\r\n    }\r\n}\r\n",
  "sourcePath": "C:\\Users\\taylo\\OneDrive\\Desktop\\KingslandUniversity\\Blockchain\\Mod4\\Homework\\Exercise3\\contracts\\PublicArticle.sol",
  "compiler": {
    "name": "solc",
    "version": "0.8.7+commit.e28d00a7.Emscripten.clang"
  },
  "schemaVersion": "3.4.10",
  "updatedAt": "2022-11-22T20:05:38.028Z",
  "networkType": "ethereum",
  "devdoc": {
    "kind": "dev",
    "methods": {},
    "version": 1
  },
  "userdoc": {
    "kind": "user",
    "methods": {},
    "version": 1
  }
}